:1000000045C0000053C0000051C000004FC00000B8
:100010004DC000004BC0000049C0000047C00000B8
:1000200045C0000043C0000041C000003FC00000C8
:100030003DC000003BC0000039C0000037C00000D8
:1000400035C0000033C0000031C000002FC00000E8
:100050002DC000002BC0000029C0000027C00000F8
:1000600025C0000023C0000021C000001FC0000008
:100070001DC000001BC0000019C0000017C0000018
:1000800015C0000013C0000011C0000011241FBEE5
:10009000CFEFD0E4DEBFCDBF21E0A0E0B1E001C0F2
:1000A0001D92A130B207E1F757D066C0A9CF8130C9
:1000B00081F0E1ECF0E0808188618083E2ECF0E0A7
:1000C00080818660808383E38093C4001092C500A2
:1000D0000895E9ECF0E0808188618083EAECF0E04B
:1000E00080818660808383E38093CC001092CD0072
:1000F0000895813029F48091C800882384F0089500
:100100008091C0008823ACF4A6ECB0E0E0ECF0E015
:100110008C918093000180818823D4F30895AEEC04
:10012000B0E0E8ECF0E08C918093000180818823BE
:10013000D4F30895813041F0E0ECF0E08081882331
:10014000ECF78091C6000895E8ECF0E08081882308
:10015000ECF78091CE0008958FEF81B912B881E05D
:10016000A6DFC8ECD0E088818823ECF781E0E2DFED
:0C01700082B981E0BEDFF7CFF894FFCF2A
:00000001FF
