S01000004C4142335F4E45572E73726563C9
S113000045C0000060C000005EC000005CC000008D
S11300105AC0000058C0000056C0000054C0000080
S113002052C0000050C000004EC000004CC0000090
S11300304AC000006CC0000046C0000044C000007C
S113004042C0000040C000003EC000003CC00000B0
S11300503AC0000038C0000036C0000034C00000C0
S113006032C0000030C000002EC000002CC00000D0
S11300702AC0000028C0000026C0000024C00000E0
S113008022C0000020C000001EC0000011241FBEBA
S1130090CFEFD0E4DEBFCDBF11E0A0E0B1E0E6E1F8
S11300A0F2E000E00BBF02C007900D92A430B1074C
S11300B0D9F721E0A4E0B1E001C01D92AB30B20752
S11300C0E1F782D0A6C09CCF8BE0809381008DE7BE
S11300D090E0909389008093880082E080936F0081
S11300E0109285001092840080910001909101018A
S11300F0A0910201B0910301809305019093060140
S1130100A0930701B093080180E88FBF08951F9260
S11301100F920FB60F9211248F939F93AF93BF93B7
S11301208091050190910601A0910701B091080109
S11301300197A109B1098093050190930601A09349
S11301400701B0930801892B8A2B8B2B99F481E04A
S1130150809309018091000190910101A091020115
S1130160B09103018093050190930601A0930701C8
S1130170B0930801BF91AF919F918F910F900FBEE3
S11301800F901F90189580E484B985B981E58CBDE2
S113019080E88FBF08958EBD2C980DB407FEFDCF67
S11301A02C9A089580910A0181110DC08091040157
S11301B0F2DF809104018F5F809304018F3F19F473
S11301C0EADF1092040108958FEF81B912B89FEB12
S11301D094B990E495B990EF97B99FE098B98AB92A
S11301E01BB882E390E0A0E0B0E08093000190931C
S11301F00101A0930201B093030180930501909340
S11302000601A0930701B09308015EDFBCDFCADFDB
S1090210FDCFF894FFCFBE
S107021601000000DF
S9030000FC
