:1000000045C0000060C000005EC000005CC0000091
:100010005AC0000058C0000056C0000054C0000084
:1000200052C0000050C000004EC000004CC0000094
:100030004AC00000D7C2000046C0000044C0000013
:1000400042C0000040C000003EC000003CC00000B4
:100050003AC0000038C0000036C0000034C00000C4
:1000600032C0000030C000002EC000002CC00000D4
:100070002AC0000028C0000026C0000024C00000E4
:1000800022C0000020C000001EC0000011241FBEBE
:10009000CFEFD0E4DEBFCDBF11E0A0E0B1E0E4ECF3
:1000A000FCE000E00BBF02C007900D92A032B10748
:1000B000D9F727E0A0E2B1E001C01D92AB35B2074D
:1000C000E1F72ED1FDC59CCFCF93DF93EC01DDD3BB
:1000D0002091200130912101CE01820F931F8C3D90
:1000E00045E0940758F42817390758F4E901CE5D24
:1000F000DE4F909321018093200105C0C0E0D0E045
:1001000002C0C0E0D0E088D4CE01DF91CF91089545
:100110000895FC010396928381832FEF3FEF348390
:100120002383968385839087878310820895FC01BB
:10013000118610860895CF93DF93FC01DB012181A6
:100140003281E9018A819B8113969C938E93129749
:100150008181928115969C938E9314978A819B81BD
:10016000EC017D836C83E9017B836A837283618305
:100170001996FC93EE93189780818F5F8083DF91AF
:10018000CF910895CF93DF93EB01488159814F3F81
:100190002FEF520731F4DC011796ED91FC9118977F
:1001A00017C0FC013396DC0115962D913C911697F2
:1001B000D9012D913C914217530750F00280F381F1
:1001C000E02DA281B3812D913C9142175307B0F7E6
:1001D000A281B381BB83AA831596DC93CE93149737
:1001E000FD83EC83D383C28399878887FC012081B8
:1001F0002F5F2083DF91CF910895FC01A281B3810D
:100200008481958115969C938E931497A481B581D2
:100210008281938113969C938E931297A085B185CA
:1002200011968D919C9112978E179F0731F48481BE
:10023000958112969C938E931197118610868C91BE
:1002400081508C93089593B180915907882319F0B8
:10025000813029F0089581E080935907089590FF37
:1002600003C01092FE06089581E08093FE06089573
:1002700010925907E8DF82E390E04FD4FBCF8091E2
:100280005A07882319F0813019F004C018B802C049
:1002900084E088B980915A07882319F0813041F0B1
:1002A00008958091FE06813049F480935A0708959D
:1002B0008091FE06811102C010925A070895109293
:1002C0005A07DDDF82E390E028D4FBCFAF92BF92E4
:1002D000CF92DF92EF92FF920F93CF93A12CB12C8C
:1002E000C12CD12CE12CF12C082F20E030E045E589
:1002F00050E062E071E088E391E0ABD120E030E0D3
:1003000045E550E06DE071E08FE591E0A2D1CF913D
:100310000F91FF90EF90DF90CF90BF90AF90089536
:1003200014B88FEF85B987B918B881E0CFDF84D2D0
:1003300080E090E0089531E1FC013083319722E2C2
:1003400020833197A3E3A083319760833197708333
:1003500031971082319760E860833197108231972E
:1003600062E06083319763E06083319764E060838B
:10037000319765E06083319766E06083319767E08D
:100380006083319768E06083319769E060833197DB
:1003900060E1608331973083319732E13083319768
:1003A00033E13083319734E13083319735E1308365
:1003B000319736E13083319737E13083319738E137
:1003C0003083319739E13083319730E23083319790
:1003D00031E2308331972083319723E220833197B4
:1003E000408331975083319726E22083319727E26B
:1003F0002083319728E22083319729E220833197A7
:1004000020E32083319721E320838697089510927B
:1004100089008CE7809388008BE080938100EFE671
:10042000F0E0808182608083A0915707B0915807E7
:10043000CD91CDBFDD91DEBFFF91EF91DF91CF91E7
:10044000BF91AF919F918F917F916F915F914F91EC
:100450003F912F911F910F91FF90EF90DF90CF90E0
:10046000BF90AF909F908F907F906F905F904F90D4
:100470003F902F901F900F900FBE0F90089581E036
:1004800008950F920FB6F8940F921F9211242F9295
:100490003F924F925F926F927F928F929F92AF9214
:1004A000BF92CF92DF92EF92FF920F931F932F9301
:1004B0003F934F935F936F937F938F939F93AF93EC
:1004C000BF93CF93DF93EF93FF93A0915707B09122
:1004D00058070DB60D920EB60D9270D3A091570726
:1004E000B0915807CD91CDBFDD91DEBFFF91EF9167
:1004F000DF91CF91BF91AF919F918F917F916F913C
:100500005F914F913F912F911F910F91FF90EF902D
:10051000DF90CF90BF90AF909F908F907F906F9023
:100520005F904F903F902F901F900F900FBE0F90B5
:1005300008950F920FB6F8940F921F9211242F92E4
:100540003F924F925F926F927F928F929F92AF9263
:10055000BF92CF92DF92EF92FF920F931F932F9350
:100560003F934F935F936F937F938F939F93AF933B
:10057000BF93CF93DF93EF93FF93A0915707B09171
:1005800058070DB60D920EB60D9285D117D3A091D6
:100590005707B0915807CD91CDBFDD91DEBFFF91D8
:1005A000EF91DF91CF91BF91AF919F918F917F910B
:1005B0006F915F914F913F912F911F910F91FF90FC
:1005C000EF90DF90CF90BF90AF909F908F907F90F3
:1005D0006F905F904F903F902F901F900F900FBEA5
:1005E0000F900895A6DF1895CF93DF93EC01E0916B
:1005F0005707F09158079383828380910707909162
:100600000807C817D90760F4609157077091580719
:1006100080911D0790911E076E5F7F4FB3DD16C05E
:10062000609157077091580780911F07909120079C
:100630006E5F7F4FA7DD8091000190910101C81787
:10064000D90720F4D0930101C0930001DF91CF912D
:1006500008954F925F926F927F928F929F92AF9286
:10066000BF92CF92DF92EF92FF920F931F93CF939F
:10067000DF935C014B013A01290181E290E024DD26
:10068000EC01892B09F4C6C0C114D10409F0BEC025
:10069000C3011ADD988F8F8B009719F4CE0138DDD6
:1006A000B9C0A30165EA70E0F5D293012150310988
:1006B0008F89988D3C01620E731E48E050E0B401B2
:1006C000CE014996EED218A2102F043008F013E0A4
:1006D0001E8B6E0182E0C80ED11CC60128DDCE0142
:1006E0000C9625DDD987C88784E090E0811B9109AD
:1006F0009D878C87DB8BCA8BA201B501C3011BDEF2
:1007000099838883E114F10419F0F701D183C08340
:100710000FB6F8940F92809109078F5F80930907B5
:100720008091570790915807892B69F5D093580706
:10073000C0935707809109078130A1F583E397E0C3
:10074000E8DC8CE397E0E5DC85E497E0E2DC8EE42E
:1007500097E0DFDC8AE297E0DCDC81E297E0D9DC3D
:1007600084E197E0D6DC8BE097E0D3DC8AE297E087
:100770009093200780931F0781E297E090931E07D4
:1007800080931D070FC08091040781110BC0E09179
:100790005707F09158078689081720F0D09358071B
:1007A000C09357078E8990910607981710F480938D
:1007B00006079091FF069F5F9093FF0690910507B3
:1007C000981710F48093050790E09C01220F331FC7
:1007D000220F331F220F331F820F931FB6018D5C30
:1007E000984FA9DC0F900FBE80910407882351F029
:1007F000E0915707F09158078689801728F441DE69
:1008000081E009C081E007C081E005C0D88ECF8AB1
:10081000C60147CF8FEFDF91CF911F910F91FF90CE
:10082000EF90DF90CF90BF90AF909F908F907F9090
:100830006F905F904F900895AF92BF92CF92DF92EA
:10084000EF92FF920F93A12CB12CC12CD12CE12C53
:10085000F12C00E020E030E045E550E06AE171E095
:1008600088EA95E0F6DE813041F4F894809304073D
:100870001092080710920707CADD0F91FF90EF90C2
:10088000DF90CF90BF90AF900895809103078F5F66
:100890008093030708950F931F93CF93DF93809165
:1008A00003078111AFC08091070790910807019657
:1008B0009093080780930707809107079091080796
:1008C000892B99F580911F079091200720911D0792
:1008D00030911E073093200720931F0790931E0727
:1008E00080931D07809100078F5F80930007E09140
:1008F0001F07F09120078081811107C08FEF9FEFC4
:10090000909301018093000110C0E0911F07F091C6
:1009100020070580F681E02D0680F781E02D828199
:1009200093819093010180930001209107073091FA
:10093000080780910001909101012817390708F4F8
:1009400066C0E0911F07F09120078081882399F00D
:10095000E0911F07F09120070580F681E02DC68108
:10096000D7818A819B81209107073091080728173A
:100970003907F8F419C08FEF9FEF9093010180932E
:10098000000145C0E0911F07F09120070580F68126
:10099000E02DC681D7818A819B8120910707309104
:1009A00008072817390728F4909301018093000164
:1009B0002EC08E010E5F1F4FC8011FDC8C899D89E0
:1009C000892B19F0CE010C9618DC2E898091050731
:1009D000821710F42093050730E0C901880F991F92
:1009E000880F991F880F991F820F931FB8018D5C84
:1009F000984FA1DBE0911F07F091200780818111C2
:100A0000C1CFB9CF809102078F5F80930207DF913A
:100A1000CF911F910F910895CF92DF92EF92FF92A5
:100A20000F931F93CF93DF930FB6F8940F9280919B
:100A300003078150809303078091030781115FC0F2
:100A40008091090781112FC05DC0D7011596ED91E6
:100A5000FC911697C681D781CE010C96CEDB8E0114
:100A60000E5F1F4FC801C9DB2E89809105078217D1
:100A700010F42093050730E0C901880F991F880FF3
:100A8000991F880F991F820F931FB8018D5C984F93
:100A900052DBE0915707F09158079E898689981795
:100AA00058F0DC2C09C0D12C0F2EF4E1EF2EF7E02A
:100AB000FF2EF02DCC24C394F70180818111C5CF86
:100AC00080910207882379F080910207882391F0B2
:100AD000E2DE809102078150809302078091020735
:100AE0008111F6CF07C0F1E0DF1621F080910107F8
:100AF000813039F410920107C4DC81E003C080E04A
:100B000001C080E00F900FBEDF91CF911F910F9138
:100B1000FF90EF90DF90CF900895CF93DF93EC019B
:100B2000892B91F0B2DE8091070790910807C80FDA
:100B3000D91F809157079091580702965EDBCE012E
:100B400053DD6ADF811101C09CDCDF91CF910895F4
:100B50000F2EFBE0EF2EF7E0FF2EF02DC3E3D7E0E2
:100B600080910A07882329F190DED7011C9154DF78
:100B70001123F9F00FB6F8940F92D7011596ED9165
:100B8000FC91169706811781C801029636DB809189
:100B9000090781508093090780910A07815080934B
:100BA0000A070F900FBEF8018789908DB1DAC8014E
:100BB000AFDA88818230A0F264DCD2CF8091030763
:100BC000811113C08091050790E0FC01EE0FFF1F1B
:100BD000EE0FFF1FEE0FFF1F8E0F9F1FFC01ED5C3E
:100BE000F84F8081882329F01BC081E080930107A2
:100BF000089580910507815080930507809105072E
:100C000090E0FC01EE0FFF1FEE0FFF1FEE0FFF1F26
:100C10008E0F9F1FFC01ED5CF84F8081882349F304
:100C20008091050790E09C01220F331F220F331F94
:100C3000220F331F280F391FD901AD5CB84F119611
:100C4000ED91FC9112970280F381E02D1296FC93B6
:100C5000EE9311972A5C384FE217F30729F42281AB
:100C60003381FD0132832183FC01EE0FFF1FEE0F64
:100C7000FF1FEE0FFF1F8E0F9F1FFC01ED5CF84F53
:100C80000180F281E02D86819781909358078093AF
:100C900057070895DC0101C06D9341505040E0F7C3
:100CA0000895FB01DC014150504048F001900D9245
:100CB0000020C9F701C01D9241505040E0F708954F
:040CC000F894FFCFD6
:100CC400FFFF4C65645365635461736B004C696743
:100CD40068745365635461736B0049444C45000068
:00000001FF
